{
  "_format": "hh3-artifact-1",
  "contractName": "ChainPOS",
  "sourceName": "contracts/ChainPOS.sol",
  "abi": [
    {
      "inputs": [
        {
          "internalType": "address",
          "name": "_executor",
          "type": "address"
        },
        {
          "internalType": "address",
          "name": "_platformWallet",
          "type": "address"
        },
        {
          "internalType": "address",
          "name": "_taxWallet",
          "type": "address"
        },
        {
          "internalType": "uint256",
          "name": "_platformFeeBps",
          "type": "uint256"
        },
        {
          "internalType": "uint256",
          "name": "_taxBps",
          "type": "uint256"
        }
      ],
      "stateMutability": "nonpayable",
      "type": "constructor"
    },
    {
      "anonymous": false,
      "inputs": [
        {
          "indexed": true,
          "internalType": "address",
          "name": "customer",
          "type": "address"
        },
        {
          "indexed": true,
          "internalType": "address",
          "name": "vendor",
          "type": "address"
        },
        {
          "indexed": false,
          "internalType": "string",
          "name": "itemRef",
          "type": "string"
        },
        {
          "indexed": false,
          "internalType": "uint256",
          "name": "amount",
          "type": "uint256"
        }
      ],
      "name": "Deposit",
      "type": "event"
    },
    {
      "anonymous": false,
      "inputs": [
        {
          "indexed": true,
          "internalType": "address",
          "name": "oldExecutor",
          "type": "address"
        },
        {
          "indexed": true,
          "internalType": "address",
          "name": "newExecutor",
          "type": "address"
        }
      ],
      "name": "ExecutorChanged",
      "type": "event"
    },
    {
      "anonymous": false,
      "inputs": [
        {
          "indexed": true,
          "internalType": "address",
          "name": "vendor",
          "type": "address"
        },
        {
          "indexed": false,
          "internalType": "string",
          "name": "itemRef",
          "type": "string"
        },
        {
          "indexed": false,
          "internalType": "uint256",
          "name": "price",
          "type": "uint256"
        }
      ],
      "name": "ItemRegistered",
      "type": "event"
    },
    {
      "anonymous": false,
      "inputs": [
        {
          "indexed": false,
          "internalType": "uint256",
          "name": "cycle",
          "type": "uint256"
        },
        {
          "indexed": false,
          "internalType": "uint256",
          "name": "totalAmount",
          "type": "uint256"
        }
      ],
      "name": "SettlementExecuted",
      "type": "event"
    },
    {
      "anonymous": false,
      "inputs": [
        {
          "indexed": true,
          "internalType": "address",
          "name": "vendor",
          "type": "address"
        },
        {
          "indexed": false,
          "internalType": "string",
          "name": "name",
          "type": "string"
        }
      ],
      "name": "VendorRegistered",
      "type": "event"
    },
    {
      "anonymous": false,
      "inputs": [
        {
          "indexed": true,
          "internalType": "address",
          "name": "vendor",
          "type": "address"
        }
      ],
      "name": "VendorRemoved",
      "type": "event"
    },
    {
      "inputs": [],
      "name": "currentCycle",
      "outputs": [
        {
          "internalType": "uint256",
          "name": "",
          "type": "uint256"
        }
      ],
      "stateMutability": "view",
      "type": "function"
    },
    {
      "inputs": [],
      "name": "executeSettlement",
      "outputs": [],
      "stateMutability": "nonpayable",
      "type": "function"
    },
    {
      "inputs": [],
      "name": "executor",
      "outputs": [
        {
          "internalType": "address",
          "name": "",
          "type": "address"
        }
      ],
      "stateMutability": "view",
      "type": "function"
    },
    {
      "inputs": [],
      "name": "getContractBalance",
      "outputs": [
        {
          "internalType": "uint256",
          "name": "",
          "type": "uint256"
        }
      ],
      "stateMutability": "view",
      "type": "function"
    },
    {
      "inputs": [
        {
          "internalType": "address",
          "name": "_vendor",
          "type": "address"
        },
        {
          "internalType": "string",
          "name": "_itemRef",
          "type": "string"
        }
      ],
      "name": "getItemPrice",
      "outputs": [
        {
          "internalType": "uint256",
          "name": "",
          "type": "uint256"
        }
      ],
      "stateMutability": "view",
      "type": "function"
    },
    {
      "inputs": [],
      "name": "getTransactionCount",
      "outputs": [
        {
          "internalType": "uint256",
          "name": "",
          "type": "uint256"
        }
      ],
      "stateMutability": "view",
      "type": "function"
    },
    {
      "inputs": [
        {
          "internalType": "address",
          "name": "_vendor",
          "type": "address"
        }
      ],
      "name": "getVendorBalance",
      "outputs": [
        {
          "internalType": "uint256",
          "name": "",
          "type": "uint256"
        }
      ],
      "stateMutability": "view",
      "type": "function"
    },
    {
      "inputs": [],
      "name": "getVendorCount",
      "outputs": [
        {
          "internalType": "uint256",
          "name": "",
          "type": "uint256"
        }
      ],
      "stateMutability": "view",
      "type": "function"
    },
    {
      "inputs": [
        {
          "internalType": "address",
          "name": "_addr",
          "type": "address"
        }
      ],
      "name": "isExecutor",
      "outputs": [
        {
          "internalType": "bool",
          "name": "",
          "type": "bool"
        }
      ],
      "stateMutability": "view",
      "type": "function"
    },
    {
      "inputs": [
        {
          "internalType": "address",
          "name": "_vendor",
          "type": "address"
        }
      ],
      "name": "isVendorRegistered",
      "outputs": [
        {
          "internalType": "bool",
          "name": "",
          "type": "bool"
        }
      ],
      "stateMutability": "view",
      "type": "function"
    },
    {
      "inputs": [
        {
          "internalType": "address",
          "name": "",
          "type": "address"
        },
        {
          "internalType": "string",
          "name": "",
          "type": "string"
        }
      ],
      "name": "itemPrices",
      "outputs": [
        {
          "internalType": "uint256",
          "name": "",
          "type": "uint256"
        }
      ],
      "stateMutability": "view",
      "type": "function"
    },
    {
      "inputs": [],
      "name": "owner",
      "outputs": [
        {
          "internalType": "address",
          "name": "",
          "type": "address"
        }
      ],
      "stateMutability": "view",
      "type": "function"
    },
    {
      "inputs": [
        {
          "internalType": "address",
          "name": "_vendor",
          "type": "address"
        },
        {
          "internalType": "string",
          "name": "_itemRef",
          "type": "string"
        }
      ],
      "name": "pay",
      "outputs": [],
      "stateMutability": "payable",
      "type": "function"
    },
    {
      "inputs": [],
      "name": "platformFeeBps",
      "outputs": [
        {
          "internalType": "uint256",
          "name": "",
          "type": "uint256"
        }
      ],
      "stateMutability": "view",
      "type": "function"
    },
    {
      "inputs": [],
      "name": "platformWallet",
      "outputs": [
        {
          "internalType": "address",
          "name": "",
          "type": "address"
        }
      ],
      "stateMutability": "view",
      "type": "function"
    },
    {
      "inputs": [
        {
          "internalType": "string",
          "name": "_itemRef",
          "type": "string"
        },
        {
          "internalType": "uint256",
          "name": "_price",
          "type": "uint256"
        }
      ],
      "name": "registerItem",
      "outputs": [],
      "stateMutability": "nonpayable",
      "type": "function"
    },
    {
      "inputs": [
        {
          "internalType": "address",
          "name": "_vendor",
          "type": "address"
        },
        {
          "internalType": "string",
          "name": "_name",
          "type": "string"
        }
      ],
      "name": "registerVendor",
      "outputs": [],
      "stateMutability": "nonpayable",
      "type": "function"
    },
    {
      "inputs": [
        {
          "internalType": "address",
          "name": "_vendor",
          "type": "address"
        }
      ],
      "name": "removeVendor",
      "outputs": [],
      "stateMutability": "nonpayable",
      "type": "function"
    },
    {
      "inputs": [],
      "name": "resetCycle",
      "outputs": [],
      "stateMutability": "nonpayable",
      "type": "function"
    },
    {
      "inputs": [
        {
          "internalType": "address",
          "name": "_newExecutor",
          "type": "address"
        }
      ],
      "name": "setExecutor",
      "outputs": [],
      "stateMutability": "nonpayable",
      "type": "function"
    },
    {
      "inputs": [],
      "name": "settlementExecuted",
      "outputs": [
        {
          "internalType": "bool",
          "name": "",
          "type": "bool"
        }
      ],
      "stateMutability": "view",
      "type": "function"
    },
    {
      "inputs": [],
      "name": "taxBps",
      "outputs": [
        {
          "internalType": "uint256",
          "name": "",
          "type": "uint256"
        }
      ],
      "stateMutability": "view",
      "type": "function"
    },
    {
      "inputs": [],
      "name": "taxWallet",
      "outputs": [
        {
          "internalType": "address",
          "name": "",
          "type": "address"
        }
      ],
      "stateMutability": "view",
      "type": "function"
    },
    {
      "inputs": [
        {
          "internalType": "uint256",
          "name": "",
          "type": "uint256"
        }
      ],
      "name": "transactions",
      "outputs": [
        {
          "internalType": "address",
          "name": "vendor",
          "type": "address"
        },
        {
          "internalType": "string",
          "name": "itemRef",
          "type": "string"
        },
        {
          "internalType": "uint256",
          "name": "amount",
          "type": "uint256"
        },
        {
          "internalType": "uint256",
          "name": "timestamp",
          "type": "uint256"
        }
      ],
      "stateMutability": "view",
      "type": "function"
    },
    {
      "inputs": [
        {
          "internalType": "uint256",
          "name": "",
          "type": "uint256"
        }
      ],
      "name": "vendorList",
      "outputs": [
        {
          "internalType": "address",
          "name": "",
          "type": "address"
        }
      ],
      "stateMutability": "view",
      "type": "function"
    },
    {
      "inputs": [
        {
          "internalType": "address",
          "name": "",
          "type": "address"
        }
      ],
      "name": "vendors",
      "outputs": [
        {
          "internalType": "address",
          "name": "wallet",
          "type": "address"
        },
        {
          "internalType": "string",
          "name": "name",
          "type": "string"
        },
        {
          "internalType": "bool",
          "name": "registered",
          "type": "bool"
        },
        {
          "internalType": "uint256",
          "name": "pendingBalance",
          "type": "uint256"
        }
      ],
      "stateMutability": "view",
      "type": "function"
    },
    {
      "stateMutability": "payable",
      "type": "receive"
    }
  ],
  "bytecode": "0x608060405234801561000f575f5ffd5b50604051611bb3380380611bb383398101604081905261002e916101e3565b6001600160a01b03851661007c5760405162461bcd60e51b815260206004820152601060248201526f24b73b30b634b21032bc32b1baba37b960811b60448201526064015b60405180910390fd5b6001600160a01b0384166100d25760405162461bcd60e51b815260206004820152601760248201527f496e76616c696420706c6174666f726d2077616c6c65740000000000000000006044820152606401610073565b6001600160a01b03831661011d5760405162461bcd60e51b8152602060048201526012602482015271125b9d985b1a59081d185e081dd85b1b195d60721b6044820152606401610073565b61271061012a8284610235565b1061016a5760405162461bcd60e51b815260206004820152601060248201526f4665657320657863656564203130302560801b6044820152606401610073565b5f8054336001600160a01b0319918216179091556001805482166001600160a01b039788161781556002805483169688169690961790955560038054909116939095169290921790935560049290925560059190915560075561025a565b80516001600160a01b03811681146101de575f5ffd5b919050565b5f5f5f5f5f60a086880312156101f7575f5ffd5b610200866101c8565b945061020e602087016101c8565b935061021c604087016101c8565b6060870151608090970151959894975095949392505050565b8082018082111561025457634e487b7160e01b5f52601160045260245ffd5b92915050565b61194c806102675f395ff3fe60806040526004361061017e575f3560e01c80638d27a817116100cd578063acfa768d11610087578063d1205beb11610062578063d1205beb146104b5578063debfda30146104ec578063fa2af9da1461051a578063fb4da5b714610539575f5ffd5b8063acfa768d14610462578063bab2f55214610481578063c34c08e514610496575f5ffd5b80638d27a817146103ba5780638da5cb5b146103ce5780639271c203146103ec5780639ace38c2146104005780639d9025a21461042f578063a12eba7c1461044e575f5ffd5b80632e7700f011610138578063441cdaa211610113578063441cdaa21461035157806354b622c91461036a5780636f9fb98a14610389578063840907341461039b575f5ffd5b80632e7700f0146103095780632e9bcfa41461031d5780633eacd2f81461033c575f5ffd5b80631c3c0ea8146101c957806320f75c54146101ea57806322dcd13e1461024457806327e30c361461025957806329116087146102885780632dc0562d146102d2575f5ffd5b366101c55760405162461bcd60e51b81526020600482015260126024820152712ab9b2903830bc941490333ab731ba34b7b760711b60448201526064015b60405180910390fd5b5f5ffd5b3480156101d4575f5ffd5b506101e86101e33660046113d6565b61054c565b005b3480156101f5575f5ffd5b5061023161020436600461140a565b600960209081525f9283526040909220815180830184018051928152908401929093019190912091525481565b6040519081526020015b60405180910390f35b34801561024f575f5ffd5b5061023160045481565b348015610264575f5ffd5b506102786102733660046113d6565b61060f565b60405161023b94939291906114fc565b348015610293575f5ffd5b506102c26102a23660046113d6565b6001600160a01b03165f9081526008602052604090206002015460ff1690565b604051901515815260200161023b565b3480156102dd575f5ffd5b506003546102f1906001600160a01b031681565b6040516001600160a01b03909116815260200161023b565b348015610314575f5ffd5b50600b54610231565b348015610328575f5ffd5b506101e8610337366004611577565b6106cb565b348015610347575f5ffd5b5061023160055481565b34801561035c575f5ffd5b506006546102c29060ff1681565b348015610375575f5ffd5b506101e86103843660046113d6565b6107fa565b348015610394575f5ffd5b5047610231565b3480156103a6575f5ffd5b506102f16103b53660046115bf565b610938565b3480156103c5575f5ffd5b506101e8610960565b3480156103d9575f5ffd5b505f546102f1906001600160a01b031681565b3480156103f7575f5ffd5b506101e8610d4f565b34801561040b575f5ffd5b5061041f61041a3660046115bf565b610df0565b60405161023b94939291906115d6565b34801561043a575f5ffd5b5061023161044936600461160c565b610eba565b348015610459575f5ffd5b50600a54610231565b34801561046d575f5ffd5b506101e861047c36600461160c565b610ef9565b34801561048c575f5ffd5b5061023160075481565b3480156104a1575f5ffd5b506001546102f1906001600160a01b031681565b3480156104c0575f5ffd5b506102316104cf3660046113d6565b6001600160a01b03165f9081526008602052604090206003015490565b3480156104f7575f5ffd5b506102c26105063660046113d6565b6001546001600160a01b0391821691161490565b348015610525575f5ffd5b506002546102f1906001600160a01b031681565b6101e861054736600461160c565b611120565b5f546001600160a01b031633146105755760405162461bcd60e51b81526004016101bc9061165b565b6001600160a01b0381166105be5760405162461bcd60e51b815260206004820152601060248201526f24b73b30b634b21032bc32b1baba37b960811b60448201526064016101bc565b600180546001600160a01b038381166001600160a01b0319831681179093556040519116919082907f54a57d849b9d8af1a8883dad9184e599aa67ef60814f6c91db7f864abd4325fc905f90a35050565b60086020525f9081526040902080546001820180546001600160a01b03909216929161063a90611688565b80601f016020809104026020016040519081016040528092919081815260200182805461066690611688565b80156106b15780601f10610688576101008083540402835291602001916106b1565b820191905f5260205f20905b81548152906001019060200180831161069457829003601f168201915b505050506002830154600390930154919260ff1691905084565b335f9081526008602052604090206002015460ff166107365760405162461bcd60e51b815260206004820152602160248201527f436861696e504f533a204e6f74206120726567697374657265642076656e646f6044820152603960f91b60648201526084016101bc565b5f81116107855760405162461bcd60e51b815260206004820152601f60248201527f5072696365206d7573742062652067726561746572207468616e207a65726f0060448201526064016101bc565b335f908152600960205260409081902090518291906107a790869086906116c0565b9081526040519081900360200181209190915533907f41e052194ebddbf6b5990a82f3b714556e414235917d9244dad946e09d9323cc906107ed908690869086906116f7565b60405180910390a2505050565b5f546001600160a01b031633146108235760405162461bcd60e51b81526004016101bc9061165b565b6001600160a01b0381165f9081526008602052604090206002015460ff166108855760405162461bcd60e51b815260206004820152601560248201527415995b991bdc881b9bdd081c9959da5cdd195c9959605a1b60448201526064016101bc565b6001600160a01b0381165f90815260086020526040902060030154156108ed5760405162461bcd60e51b815260206004820152601a60248201527f56656e646f72206861732070656e64696e672062616c616e636500000000000060448201526064016101bc565b6001600160a01b0381165f81815260086020526040808220600201805460ff19169055517fceb8b5081e60cbeafb2db1ed5f2ef32309a5ba1d0d74ac127be270181f297e589190a250565b600a8181548110610947575f80fd5b5f918252602090912001546001600160a01b0316905081565b6001546001600160a01b031633146109b35760405162461bcd60e51b815260206004820152601660248201527521b430b4b72827a99d102737ba1032bc32b1baba37b960511b60448201526064016101bc565b60065460ff16156109d65760405162461bcd60e51b81526004016101bc9061171a565b4780610a185760405162461bcd60e51b81526020600482015260116024820152704e6f7468696e6720746f20736574746c6560781b60448201526064016101bc565b5f61271060045483610a2a919061177e565b610a34919061179b565b90505f61271060055484610a48919061177e565b610a52919061179b565b90505f81610a6084866117ba565b610a6a91906117ba565b6002546040519192505f916001600160a01b039091169085908381818185875af1925050503d805f8114610ab9576040519150601f19603f3d011682016040523d82523d5f602084013e610abe565b606091505b5050905080610b0f5760405162461bcd60e51b815260206004820152601860248201527f506c6174666f726d207472616e73666572206661696c6564000000000000000060448201526064016101bc565b6003546040515f916001600160a01b03169085908381818185875af1925050503d805f8114610b59576040519150601f19603f3d011682016040523d82523d5f602084013e610b5e565b606091505b5050905080610ba55760405162461bcd60e51b815260206004820152601360248201527215185e081d1c985b9cd9995c8819985a5b1959606a1b60448201526064016101bc565b5f805b600a54811015610cf4575f600a8281548110610bc657610bc66117cd565b5f9182526020808320909101546001600160a01b0316808352600890915260409091206003015490915015610ceb576001600160a01b0381165f908152600860205260408120600301548a90610c1d90899061177e565b610c27919061179b565b6001600160a01b0383165f908152600860205260408120600301559050610c4e81856117e1565b93505f826001600160a01b0316826040515f6040518083038185875af1925050503d805f8114610c99576040519150601f19603f3d011682016040523d82523d5f602084013e610c9e565b606091505b5050905080610ce85760405162461bcd60e51b815260206004820152601660248201527515995b991bdc881d1c985b9cd9995c8819985a5b195960521b60448201526064016101bc565b50505b50600101610ba8565b506006805460ff191660011790556007546040517ff4904bbf435daa7a733ab084d9e46281e8af51ff1faf67152dcd1faa6ebaefee91610d3e918a90918252602082015260400190565b60405180910390a150505050505050565b5f546001600160a01b03163314610d785760405162461bcd60e51b81526004016101bc9061165b565b60065460ff16610dca5760405162461bcd60e51b815260206004820152601d60248201527f43757272656e74206379636c65206e6f742079657420736574746c656400000060448201526064016101bc565b6006805460ff1916905560078054600191905f90610de99084906117e1565b9091555050565b600b8181548110610dff575f80fd5b5f918252602090912060049091020180546001820180546001600160a01b03909216935090610e2d90611688565b80601f0160208091040260200160405190810160405280929190818152602001828054610e5990611688565b8015610ea45780601f10610e7b57610100808354040283529160200191610ea4565b820191905f5260205f20905b815481529060010190602001808311610e8757829003601f168201915b5050505050908060020154908060030154905084565b6001600160a01b0383165f908152600960205260408082209051610ee190859085906116c0565b90815260200160405180910390205490509392505050565b5f546001600160a01b03163314610f225760405162461bcd60e51b81526004016101bc9061165b565b6001600160a01b038316610f715760405162461bcd60e51b8152602060048201526016602482015275496e76616c69642076656e646f72206164647265737360501b60448201526064016101bc565b6001600160a01b0383165f9081526008602052604090206002015460ff1615610fdc5760405162461bcd60e51b815260206004820152601960248201527f56656e646f7220616c726561647920726567697374657265640000000000000060448201526064016101bc565b6040518060800160405280846001600160a01b0316815260200183838080601f0160208091040260200160405190810160405280939291908181526020018383808284375f92018290525093855250506001602080850182905260409485018490526001600160a01b0389811685526008825294909320855181546001600160a01b0319169516949094178455918401519183019161107c915082611840565b5060408281015160028301805460ff1916911515919091179055606090920151600390910155600a80546001810182555f919091527fc65a7bb8d6351c1cf70c95a316cc6a92839c986682d98bc35f958f4883f9d2a80180546001600160a01b0319166001600160a01b03861690811790915590517f85b62d42045862192f9e1f971fcb74803cb7ce2635b0dd91716f738bafcb32c6906107ed90859085906118fb565b60065460ff16156111435760405162461bcd60e51b81526004016101bc9061171a565b6001600160a01b0383165f9081526008602052604090206002015460ff166111a55760405162461bcd60e51b815260206004820152601560248201527415995b991bdc881b9bdd081c9959da5cdd195c9959605a1b60448201526064016101bc565b6001600160a01b0383165f9081526009602052604080822090516111cc90859085906116c0565b90815260200160405180910390205490505f811161121d5760405162461bcd60e51b815260206004820152600e60248201526d125d195b481b9bdd08199bdd5b9960921b60448201526064016101bc565b80341461126c5760405162461bcd60e51b815260206004820152601860248201527f496e636f7272656374207061796d656e7420616d6f756e74000000000000000060448201526064016101bc565b6001600160a01b0384165f90815260086020526040812060030180543492906112969084906117e1565b92505081905550600b6040518060800160405280866001600160a01b0316815260200185858080601f0160208091040260200160405190810160405280939291908181526020018383808284375f920182905250938552505034602080850191909152426040909401939093525083546001808201865594825290829020835160049092020180546001600160a01b0319166001600160a01b0390921691909117815590820151919290919082019061134f9082611840565b5060408201518160020155606082015181600301555050836001600160a01b0316336001600160a01b03167f2dc24880b34b2026fb1cd0231e65ef42ca1c78e4efdd9711b7629740206bfa468585346040516113ad939291906116f7565b60405180910390a350505050565b80356001600160a01b03811681146113d1575f5ffd5b919050565b5f602082840312156113e6575f5ffd5b6113ef826113bb565b9392505050565b634e487b7160e01b5f52604160045260245ffd5b5f5f6040838503121561141b575f5ffd5b611424836113bb565b9150602083013567ffffffffffffffff81111561143f575f5ffd5b8301601f8101851361144f575f5ffd5b803567ffffffffffffffff811115611469576114696113f6565b604051601f8201601f19908116603f0116810167ffffffffffffffff81118282101715611498576114986113f6565b6040528181528282016020018710156114af575f5ffd5b816020840160208301375f602083830101528093505050509250929050565b5f81518084528060208401602086015e5f602082860101526020601f19601f83011685010191505092915050565b6001600160a01b03851681526080602082018190525f9061151f908301866114ce565b9315156040830152506060015292915050565b5f5f83601f840112611542575f5ffd5b50813567ffffffffffffffff811115611559575f5ffd5b602083019150836020828501011115611570575f5ffd5b9250929050565b5f5f5f60408486031215611589575f5ffd5b833567ffffffffffffffff81111561159f575f5ffd5b6115ab86828701611532565b909790965060209590950135949350505050565b5f602082840312156115cf575f5ffd5b5035919050565b6001600160a01b03851681526080602082018190525f906115f9908301866114ce565b6040830194909452506060015292915050565b5f5f5f6040848603121561161e575f5ffd5b611627846113bb565b9250602084013567ffffffffffffffff811115611642575f5ffd5b61164e86828701611532565b9497909650939450505050565b60208082526013908201527221b430b4b72827a99d102737ba1037bbb732b960691b604082015260600190565b600181811c9082168061169c57607f821691505b6020821081036116ba57634e487b7160e01b5f52602260045260245ffd5b50919050565b818382375f9101908152919050565b81835281816020850137505f828201602090810191909152601f909101601f19169091010190565b604081525f61170a6040830185876116cf565b9050826020830152949350505050565b60208082526030908201527f436861696e504f533a20536574746c656d656e7420616c72656164792065786560408201526f63757465642074686973206379636c6560801b606082015260800190565b634e487b7160e01b5f52601160045260245ffd5b80820281158282048414176117955761179561176a565b92915050565b5f826117b557634e487b7160e01b5f52601260045260245ffd5b500490565b818103818111156117955761179561176a565b634e487b7160e01b5f52603260045260245ffd5b808201808211156117955761179561176a565b601f82111561183b57805f5260205f20601f840160051c810160208510156118195750805b601f840160051c820191505b81811015611838575f8155600101611825565b50505b505050565b815167ffffffffffffffff81111561185a5761185a6113f6565b61186e816118688454611688565b846117f4565b6020601f8211600181146118a0575f83156118895750848201515b5f19600385901b1c1916600184901b178455611838565b5f84815260208120601f198516915b828110156118cf57878501518255602094850194600190920191016118af565b50848210156118ec57868401515f19600387901b60f8161c191681555b50505050600190811b01905550565b602081525f61190e6020830184866116cf565b94935050505056fea26469706673582212206ad571ee1b7f4166be21564a2f43376aa2f077bb360ff972b89b77e25cfcf13d64736f6c634300081c0033",
  "linkReferences": {},
  "deployedLinkReferences": {},
  "immutableReferences": {},
  "inputSourceName": "project/contracts/ChainPOS.sol",
  "buildInfoId": "solc-0_8_28-372e021e16191d45bc920b985d6a04bf92a3421e"
}